{
  "contractName": "voting",
  "abi": [
    {
      "inputs": [
        {
          "internalType": "uint256",
          "name": "ind",
          "type": "uint256"
        }
      ],
      "name": "giveVote",
      "outputs": [],
      "stateMutability": "nonpayable",
      "type": "function"
    },
    {
      "inputs": [],
      "name": "getVotes",
      "outputs": [
        {
          "internalType": "uint256[3]",
          "name": "",
          "type": "uint256[3]"
        }
      ],
      "stateMutability": "view",
      "type": "function",
      "constant": true
    },
    {
      "inputs": [],
      "name": "getAllVotes",
      "outputs": [
        {
          "components": [
            {
              "internalType": "address",
              "name": "from",
              "type": "address"
            },
            {
              "internalType": "uint256",
              "name": "time",
              "type": "uint256"
            },
            {
              "internalType": "address",
              "name": "to",
              "type": "address"
            }
          ],
          "internalType": "struct voting.Vote[]",
          "name": "",
          "type": "tuple[]"
        }
      ],
      "stateMutability": "view",
      "type": "function",
      "constant": true
    }
  ],
  "bytecode": "0x60806040526040518060600160405280600060ff168152602001600060ff168152602001600060ff16815250600090600361003b92919061013a565b50604051806060016040528073923ca8344c0caf9cde423afde339dc121b0cc47d73ffffffffffffffffffffffffffffffffffffffff1673ffffffffffffffffffffffffffffffffffffffff16815260200173afedb8e25e200990c58136ed575253d5ec0f0df773ffffffffffffffffffffffffffffffffffffffff1673ffffffffffffffffffffffffffffffffffffffff16815260200173660f4a772f90a79a71c8fc456eac64d65a0b6e5173ffffffffffffffffffffffffffffffffffffffff1673ffffffffffffffffffffffffffffffffffffffff16815250600390600361012792919061017f565b5034801561013457600080fd5b50610219565b826003810192821561016e579160200282015b8281111561016d578251829060ff1690559160200191906001019061014d565b5b50905061017b91906101fc565b5090565b82600381019282156101eb579160200282015b828111156101ea5782518260006101000a81548173ffffffffffffffffffffffffffffffffffffffff021916908373ffffffffffffffffffffffffffffffffffffffff16021790555091602001919060010190610192565b5b5090506101f891906101fc565b5090565b5b808211156102155760008160009055506001016101fd565b5090565b610795806102286000396000f3fe608060405234801561001057600080fd5b50600436106100415760003560e01c80630dc96015146100465780637f178f2e14610064578063851b6ef214610080575b600080fd5b61004e61009e565b60405161005b91906104ec565b60405180910390f35b61007e60048036038101906100799190610538565b6100e9565b005b610088610300565b6040516100959190610697565b60405180910390f35b6100a6610415565b60006003806020026040519081016040528092919082600380156100df576020028201915b8154815260200190600101908083116100cb575b5050505050905090565b6001600660003373ffffffffffffffffffffffffffffffffffffffff1673ffffffffffffffffffffffffffffffffffffffff16815260200190815260200160002054101561013657600080fd5b6000816003811061014a576101496106b9565b5b01600081548092919061015c90610717565b9190505550600660003373ffffffffffffffffffffffffffffffffffffffff1673ffffffffffffffffffffffffffffffffffffffff16815260200190815260200160002060008154809291906101b190610717565b9190505550600060405180606001604052803373ffffffffffffffffffffffffffffffffffffffff168152602001428152602001600384600381106101f9576101f86106b9565b5b0160009054906101000a900473ffffffffffffffffffffffffffffffffffffffff1673ffffffffffffffffffffffffffffffffffffffff168152509050600781908060018154018082558091505060019003906000526020600020906003020160009091909190915060008201518160000160006101000a81548173ffffffffffffffffffffffffffffffffffffffff021916908373ffffffffffffffffffffffffffffffffffffffff1602179055506020820151816001015560408201518160020160006101000a81548173ffffffffffffffffffffffffffffffffffffffff021916908373ffffffffffffffffffffffffffffffffffffffff16021790555050505050565b60606007805480602002602001604051908101604052809291908181526020016000905b8282101561040c57838290600052602060002090600302016040518060600160405290816000820160009054906101000a900473ffffffffffffffffffffffffffffffffffffffff1673ffffffffffffffffffffffffffffffffffffffff1673ffffffffffffffffffffffffffffffffffffffff168152602001600182015481526020016002820160009054906101000a900473ffffffffffffffffffffffffffffffffffffffff1673ffffffffffffffffffffffffffffffffffffffff1673ffffffffffffffffffffffffffffffffffffffff168152505081526020019060010190610324565b50505050905090565b6040518060600160405280600390602082028036833780820191505090505090565b600060039050919050565b600081905092915050565b6000819050919050565b6000819050919050565b61046a81610457565b82525050565b600061047c8383610461565b60208301905092915050565b6000602082019050919050565b61049e81610437565b6104a88184610442565b92506104b38261044d565b8060005b838110156104e45781516104cb8782610470565b96506104d683610488565b9250506001810190506104b7565b505050505050565b60006060820190506105016000830184610495565b92915050565b600080fd5b61051581610457565b811461052057600080fd5b50565b6000813590506105328161050c565b92915050565b60006020828403121561054e5761054d610507565b5b600061055c84828501610523565b91505092915050565b600081519050919050565b600082825260208201905092915050565b6000819050602082019050919050565b600073ffffffffffffffffffffffffffffffffffffffff82169050919050565b60006105bc82610591565b9050919050565b6105cc816105b1565b82525050565b6060820160008201516105e860008501826105c3565b5060208201516105fb6020850182610461565b50604082015161060e60408501826105c3565b50505050565b600061062083836105d2565b60608301905092915050565b6000602082019050919050565b600061064482610565565b61064e8185610570565b935061065983610581565b8060005b8381101561068a5781516106718882610614565b975061067c8361062c565b92505060018101905061065d565b5085935050505092915050565b600060208201905081810360008301526106b18184610639565b905092915050565b7f4e487b7100000000000000000000000000000000000000000000000000000000600052603260045260246000fd5b7f4e487b7100000000000000000000000000000000000000000000000000000000600052601160045260246000fd5b600061072282610457565b91507fffffffffffffffffffffffffffffffffffffffffffffffffffffffffffffffff8203610754576107536106e8565b5b60018201905091905056fea2646970667358221220ecc7fcb826198b75b5d068d391aa9091b15b8ef8ebdfc7b9ac406da7b3a63fa564736f6c63430008110033",
  "immutableReferences": {},
  "source": "//SPDX-License-Identifier: UNLICENSED\r\npragma solidity ^0.8.6;\r\n\r\ncontract voting{\r\n    uint[3] candidate_votes = [0,0,0];\r\n    address[3] candidates = [0x923CA8344c0Caf9CDe423AfdE339Dc121b0cc47d,0xafEDB8e25e200990C58136eD575253D5eC0F0dF7,0x660f4a772f90a79A71C8fc456EAc64d65A0b6e51];\r\n    \r\n    mapping(address=>uint) count;\r\n    \r\n    struct Vote{\r\n        address from;\r\n        uint time;\r\n        address to;\r\n    }\r\n\r\n    Vote[] votes;\r\n\r\n    function giveVote(uint ind) public {\r\n        require(count[msg.sender] >= 1);\r\n        candidate_votes[ind]++;\r\n        count[msg.sender]++;\r\n        Vote memory temp = Vote(msg.sender,block.timestamp,candidates[ind]);\r\n        votes.push(temp);\r\n    }\r\n\r\n    function getVotes() public view returns(uint[3] memory){\r\n        return candidate_votes;\r\n    }\r\n\r\n    function getAllVotes() public view returns(Vote[] memory){\r\n        return votes;\r\n    }\r\n}",
  "sourcePath": "P:\\Blockchain\\Transparent-Voting-System\\Server\\contracts\\voting.sol",
  "compiler": {
    "name": "solc",
    "version": "0.8.17+commit.8df45f5f.Emscripten.clang"
  },
  "schemaVersion": "3.4.11",
  "updatedAt": "2023-02-15T12:25:27.804Z",
  "networkType": "ethereum",
  "devdoc": {
    "kind": "dev",
    "methods": {},
    "version": 1
  },
  "userdoc": {
    "kind": "user",
    "methods": {},
    "version": 1
  }
}